{
  "_format": "hh-sol-artifact-1",
  "contractName": "VtradingToken",
  "sourceName": "contracts/VtradingToken.sol",
  "abi": [
    {
      "inputs": [
        {
          "internalType": "address",
          "name": "initialOwner",
          "type": "address"
        }
      ],
      "stateMutability": "nonpayable",
      "type": "constructor"
    },
    {
      "inputs": [],
      "name": "ECDSAInvalidSignature",
      "type": "error"
    },
    {
      "inputs": [
        {
          "internalType": "uint256",
          "name": "length",
          "type": "uint256"
        }
      ],
      "name": "ECDSAInvalidSignatureLength",
      "type": "error"
    },
    {
      "inputs": [
        {
          "internalType": "bytes32",
          "name": "s",
          "type": "bytes32"
        }
      ],
      "name": "ECDSAInvalidSignatureS",
      "type": "error"
    },
    {
      "inputs": [
        {
          "internalType": "address",
          "name": "spender",
          "type": "address"
        },
        {
          "internalType": "uint256",
          "name": "allowance",
          "type": "uint256"
        },
        {
          "internalType": "uint256",
          "name": "needed",
          "type": "uint256"
        }
      ],
      "name": "ERC20InsufficientAllowance",
      "type": "error"
    },
    {
      "inputs": [
        {
          "internalType": "address",
          "name": "sender",
          "type": "address"
        },
        {
          "internalType": "uint256",
          "name": "balance",
          "type": "uint256"
        },
        {
          "internalType": "uint256",
          "name": "needed",
          "type": "uint256"
        }
      ],
      "name": "ERC20InsufficientBalance",
      "type": "error"
    },
    {
      "inputs": [
        {
          "internalType": "address",
          "name": "approver",
          "type": "address"
        }
      ],
      "name": "ERC20InvalidApprover",
      "type": "error"
    },
    {
      "inputs": [
        {
          "internalType": "address",
          "name": "receiver",
          "type": "address"
        }
      ],
      "name": "ERC20InvalidReceiver",
      "type": "error"
    },
    {
      "inputs": [
        {
          "internalType": "address",
          "name": "sender",
          "type": "address"
        }
      ],
      "name": "ERC20InvalidSender",
      "type": "error"
    },
    {
      "inputs": [
        {
          "internalType": "address",
          "name": "spender",
          "type": "address"
        }
      ],
      "name": "ERC20InvalidSpender",
      "type": "error"
    },
    {
      "inputs": [
        {
          "internalType": "uint256",
          "name": "deadline",
          "type": "uint256"
        }
      ],
      "name": "ERC2612ExpiredSignature",
      "type": "error"
    },
    {
      "inputs": [
        {
          "internalType": "address",
          "name": "signer",
          "type": "address"
        },
        {
          "internalType": "address",
          "name": "owner",
          "type": "address"
        }
      ],
      "name": "ERC2612InvalidSigner",
      "type": "error"
    },
    {
      "inputs": [
        {
          "internalType": "address",
          "name": "account",
          "type": "address"
        },
        {
          "internalType": "uint256",
          "name": "currentNonce",
          "type": "uint256"
        }
      ],
      "name": "InvalidAccountNonce",
      "type": "error"
    },
    {
      "inputs": [],
      "name": "InvalidShortString",
      "type": "error"
    },
    {
      "inputs": [
        {
          "internalType": "address",
          "name": "owner",
          "type": "address"
        }
      ],
      "name": "OwnableInvalidOwner",
      "type": "error"
    },
    {
      "inputs": [
        {
          "internalType": "address",
          "name": "account",
          "type": "address"
        }
      ],
      "name": "OwnableUnauthorizedAccount",
      "type": "error"
    },
    {
      "inputs": [
        {
          "internalType": "string",
          "name": "str",
          "type": "string"
        }
      ],
      "name": "StringTooLong",
      "type": "error"
    },
    {
      "anonymous": false,
      "inputs": [
        {
          "indexed": true,
          "internalType": "address",
          "name": "owner",
          "type": "address"
        },
        {
          "indexed": true,
          "internalType": "address",
          "name": "spender",
          "type": "address"
        },
        {
          "indexed": false,
          "internalType": "uint256",
          "name": "value",
          "type": "uint256"
        }
      ],
      "name": "Approval",
      "type": "event"
    },
    {
      "anonymous": false,
      "inputs": [
        {
          "indexed": false,
          "internalType": "string",
          "name": "vestingName",
          "type": "string"
        },
        {
          "indexed": false,
          "internalType": "address",
          "name": "recipient",
          "type": "address"
        },
        {
          "indexed": false,
          "internalType": "uint256",
          "name": "claimableAmount",
          "type": "uint256"
        }
      ],
      "name": "ClaimVestedTokensEvent",
      "type": "event"
    },
    {
      "anonymous": false,
      "inputs": [],
      "name": "EIP712DomainChanged",
      "type": "event"
    },
    {
      "anonymous": false,
      "inputs": [
        {
          "indexed": true,
          "internalType": "address",
          "name": "previousOwner",
          "type": "address"
        },
        {
          "indexed": true,
          "internalType": "address",
          "name": "newOwner",
          "type": "address"
        }
      ],
      "name": "OwnershipTransferred",
      "type": "event"
    },
    {
      "anonymous": false,
      "inputs": [
        {
          "indexed": false,
          "internalType": "string",
          "name": "vestingName",
          "type": "string"
        },
        {
          "components": [
            {
              "internalType": "address",
              "name": "recipient",
              "type": "address"
            },
            {
              "internalType": "uint256",
              "name": "totalAllocated",
              "type": "uint256"
            },
            {
              "internalType": "uint256",
              "name": "released",
              "type": "uint256"
            },
            {
              "internalType": "uint256",
              "name": "startRelease",
              "type": "uint256"
            },
            {
              "internalType": "bool",
              "name": "startReleaseClaimed",
              "type": "bool"
            },
            {
              "components": [
                {
                  "internalType": "uint256",
                  "name": "releaseAmount",
                  "type": "uint256"
                },
                {
                  "internalType": "uint256",
                  "name": "month",
                  "type": "uint256"
                },
                {
                  "internalType": "uint256",
                  "name": "releaseTime",
                  "type": "uint256"
                },
                {
                  "internalType": "bool",
                  "name": "claimed",
                  "type": "bool"
                },
                {
                  "internalType": "uint256",
                  "name": "claimedTime",
                  "type": "uint256"
                }
              ],
              "internalType": "struct VtradingToken.ReleaseInfo[]",
              "name": "releaseInfos",
              "type": "tuple[]"
            },
            {
              "internalType": "uint256",
              "name": "totalReleaseMonths",
              "type": "uint256"
            },
            {
              "internalType": "uint256",
              "name": "lastClaimedMonth",
              "type": "uint256"
            },
            {
              "internalType": "uint256",
              "name": "lastClaimedTime",
              "type": "uint256"
            }
          ],
          "indexed": false,
          "internalType": "struct VtradingToken.VestingSchedule",
          "name": "vestingSchedule",
          "type": "tuple"
        }
      ],
      "name": "SetVestingScheduleEvent",
      "type": "event"
    },
    {
      "anonymous": false,
      "inputs": [
        {
          "indexed": true,
          "internalType": "address",
          "name": "from",
          "type": "address"
        },
        {
          "indexed": true,
          "internalType": "address",
          "name": "to",
          "type": "address"
        },
        {
          "indexed": false,
          "internalType": "uint256",
          "name": "value",
          "type": "uint256"
        }
      ],
      "name": "Transfer",
      "type": "event"
    },
    {
      "anonymous": false,
      "inputs": [
        {
          "indexed": false,
          "internalType": "string",
          "name": "vestingName",
          "type": "string"
        },
        {
          "indexed": false,
          "internalType": "address",
          "name": "oldOwner",
          "type": "address"
        },
        {
          "indexed": false,
          "internalType": "address",
          "name": "newOwner",
          "type": "address"
        }
      ],
      "name": "UpdateVestingScheduleOwnerEvent",
      "type": "event"
    },
    {
      "inputs": [],
      "name": "DOMAIN_SEPARATOR",
      "outputs": [
        {
          "internalType": "bytes32",
          "name": "",
          "type": "bytes32"
        }
      ],
      "stateMutability": "view",
      "type": "function"
    },
    {
      "inputs": [
        {
          "internalType": "address",
          "name": "owner",
          "type": "address"
        },
        {
          "internalType": "address",
          "name": "spender",
          "type": "address"
        }
      ],
      "name": "allowance",
      "outputs": [
        {
          "internalType": "uint256",
          "name": "",
          "type": "uint256"
        }
      ],
      "stateMutability": "view",
      "type": "function"
    },
    {
      "inputs": [
        {
          "internalType": "address",
          "name": "spender",
          "type": "address"
        },
        {
          "internalType": "uint256",
          "name": "value",
          "type": "uint256"
        }
      ],
      "name": "approve",
      "outputs": [
        {
          "internalType": "bool",
          "name": "",
          "type": "bool"
        }
      ],
      "stateMutability": "nonpayable",
      "type": "function"
    },
    {
      "inputs": [
        {
          "internalType": "address",
          "name": "account",
          "type": "address"
        }
      ],
      "name": "balanceOf",
      "outputs": [
        {
          "internalType": "uint256",
          "name": "",
          "type": "uint256"
        }
      ],
      "stateMutability": "view",
      "type": "function"
    },
    {
      "inputs": [
        {
          "internalType": "uint256",
          "name": "value",
          "type": "uint256"
        }
      ],
      "name": "burn",
      "outputs": [],
      "stateMutability": "nonpayable",
      "type": "function"
    },
    {
      "inputs": [
        {
          "internalType": "address",
          "name": "account",
          "type": "address"
        },
        {
          "internalType": "uint256",
          "name": "value",
          "type": "uint256"
        }
      ],
      "name": "burnFrom",
      "outputs": [],
      "stateMutability": "nonpayable",
      "type": "function"
    },
    {
      "inputs": [
        {
          "internalType": "string",
          "name": "vestingName",
          "type": "string"
        }
      ],
      "name": "claimVestedTokens",
      "outputs": [],
      "stateMutability": "nonpayable",
      "type": "function"
    },
    {
      "inputs": [],
      "name": "decimals",
      "outputs": [
        {
          "internalType": "uint8",
          "name": "",
          "type": "uint8"
        }
      ],
      "stateMutability": "view",
      "type": "function"
    },
    {
      "inputs": [],
      "name": "eip712Domain",
      "outputs": [
        {
          "internalType": "bytes1",
          "name": "fields",
          "type": "bytes1"
        },
        {
          "internalType": "string",
          "name": "name",
          "type": "string"
        },
        {
          "internalType": "string",
          "name": "version",
          "type": "string"
        },
        {
          "internalType": "uint256",
          "name": "chainId",
          "type": "uint256"
        },
        {
          "internalType": "address",
          "name": "verifyingContract",
          "type": "address"
        },
        {
          "internalType": "bytes32",
          "name": "salt",
          "type": "bytes32"
        },
        {
          "internalType": "uint256[]",
          "name": "extensions",
          "type": "uint256[]"
        }
      ],
      "stateMutability": "view",
      "type": "function"
    },
    {
      "inputs": [],
      "name": "name",
      "outputs": [
        {
          "internalType": "string",
          "name": "",
          "type": "string"
        }
      ],
      "stateMutability": "view",
      "type": "function"
    },
    {
      "inputs": [
        {
          "internalType": "address",
          "name": "owner",
          "type": "address"
        }
      ],
      "name": "nonces",
      "outputs": [
        {
          "internalType": "uint256",
          "name": "",
          "type": "uint256"
        }
      ],
      "stateMutability": "view",
      "type": "function"
    },
    {
      "inputs": [],
      "name": "owner",
      "outputs": [
        {
          "internalType": "address",
          "name": "",
          "type": "address"
        }
      ],
      "stateMutability": "view",
      "type": "function"
    },
    {
      "inputs": [
        {
          "internalType": "address",
          "name": "owner",
          "type": "address"
        },
        {
          "internalType": "address",
          "name": "spender",
          "type": "address"
        },
        {
          "internalType": "uint256",
          "name": "value",
          "type": "uint256"
        },
        {
          "internalType": "uint256",
          "name": "deadline",
          "type": "uint256"
        },
        {
          "internalType": "uint8",
          "name": "v",
          "type": "uint8"
        },
        {
          "internalType": "bytes32",
          "name": "r",
          "type": "bytes32"
        },
        {
          "internalType": "bytes32",
          "name": "s",
          "type": "bytes32"
        }
      ],
      "name": "permit",
      "outputs": [],
      "stateMutability": "nonpayable",
      "type": "function"
    },
    {
      "inputs": [
        {
          "internalType": "string",
          "name": "vestingName",
          "type": "string"
        }
      ],
      "name": "queryVestingSchedule",
      "outputs": [
        {
          "components": [
            {
              "internalType": "address",
              "name": "recipient",
              "type": "address"
            },
            {
              "internalType": "uint256",
              "name": "totalAllocated",
              "type": "uint256"
            },
            {
              "internalType": "uint256",
              "name": "released",
              "type": "uint256"
            },
            {
              "internalType": "uint256",
              "name": "startRelease",
              "type": "uint256"
            },
            {
              "internalType": "bool",
              "name": "startReleaseClaimed",
              "type": "bool"
            },
            {
              "components": [
                {
                  "internalType": "uint256",
                  "name": "releaseAmount",
                  "type": "uint256"
                },
                {
                  "internalType": "uint256",
                  "name": "month",
                  "type": "uint256"
                },
                {
                  "internalType": "uint256",
                  "name": "releaseTime",
                  "type": "uint256"
                },
                {
                  "internalType": "bool",
                  "name": "claimed",
                  "type": "bool"
                },
                {
                  "internalType": "uint256",
                  "name": "claimedTime",
                  "type": "uint256"
                }
              ],
              "internalType": "struct VtradingToken.ReleaseInfo[]",
              "name": "releaseInfos",
              "type": "tuple[]"
            },
            {
              "internalType": "uint256",
              "name": "totalReleaseMonths",
              "type": "uint256"
            },
            {
              "internalType": "uint256",
              "name": "lastClaimedMonth",
              "type": "uint256"
            },
            {
              "internalType": "uint256",
              "name": "lastClaimedTime",
              "type": "uint256"
            }
          ],
          "internalType": "struct VtradingToken.VestingSchedule",
          "name": "",
          "type": "tuple"
        }
      ],
      "stateMutability": "view",
      "type": "function"
    },
    {
      "inputs": [],
      "name": "renounceOwnership",
      "outputs": [],
      "stateMutability": "nonpayable",
      "type": "function"
    },
    {
      "inputs": [
        {
          "internalType": "string",
          "name": "vestingName",
          "type": "string"
        },
        {
          "components": [
            {
              "internalType": "address",
              "name": "recipient",
              "type": "address"
            },
            {
              "internalType": "uint256",
              "name": "totalAllocated",
              "type": "uint256"
            },
            {
              "internalType": "uint256",
              "name": "released",
              "type": "uint256"
            },
            {
              "internalType": "uint256",
              "name": "startRelease",
              "type": "uint256"
            },
            {
              "internalType": "bool",
              "name": "startReleaseClaimed",
              "type": "bool"
            },
            {
              "components": [
                {
                  "internalType": "uint256",
                  "name": "releaseAmount",
                  "type": "uint256"
                },
                {
                  "internalType": "uint256",
                  "name": "month",
                  "type": "uint256"
                },
                {
                  "internalType": "uint256",
                  "name": "releaseTime",
                  "type": "uint256"
                },
                {
                  "internalType": "bool",
                  "name": "claimed",
                  "type": "bool"
                },
                {
                  "internalType": "uint256",
                  "name": "claimedTime",
                  "type": "uint256"
                }
              ],
              "internalType": "struct VtradingToken.ReleaseInfo[]",
              "name": "releaseInfos",
              "type": "tuple[]"
            },
            {
              "internalType": "uint256",
              "name": "totalReleaseMonths",
              "type": "uint256"
            },
            {
              "internalType": "uint256",
              "name": "lastClaimedMonth",
              "type": "uint256"
            },
            {
              "internalType": "uint256",
              "name": "lastClaimedTime",
              "type": "uint256"
            }
          ],
          "internalType": "struct VtradingToken.VestingSchedule",
          "name": "vestingSchedule",
          "type": "tuple"
        }
      ],
      "name": "setVestingSchedule",
      "outputs": [],
      "stateMutability": "nonpayable",
      "type": "function"
    },
    {
      "inputs": [],
      "name": "symbol",
      "outputs": [
        {
          "internalType": "string",
          "name": "",
          "type": "string"
        }
      ],
      "stateMutability": "view",
      "type": "function"
    },
    {
      "inputs": [],
      "name": "totalSupply",
      "outputs": [
        {
          "internalType": "uint256",
          "name": "",
          "type": "uint256"
        }
      ],
      "stateMutability": "view",
      "type": "function"
    },
    {
      "inputs": [],
      "name": "totalTokens",
      "outputs": [
        {
          "internalType": "uint256",
          "name": "",
          "type": "uint256"
        }
      ],
      "stateMutability": "view",
      "type": "function"
    },
    {
      "inputs": [
        {
          "internalType": "address",
          "name": "to",
          "type": "address"
        },
        {
          "internalType": "uint256",
          "name": "value",
          "type": "uint256"
        }
      ],
      "name": "transfer",
      "outputs": [
        {
          "internalType": "bool",
          "name": "",
          "type": "bool"
        }
      ],
      "stateMutability": "nonpayable",
      "type": "function"
    },
    {
      "inputs": [
        {
          "internalType": "address",
          "name": "from",
          "type": "address"
        },
        {
          "internalType": "address",
          "name": "to",
          "type": "address"
        },
        {
          "internalType": "uint256",
          "name": "value",
          "type": "uint256"
        }
      ],
      "name": "transferFrom",
      "outputs": [
        {
          "internalType": "bool",
          "name": "",
          "type": "bool"
        }
      ],
      "stateMutability": "nonpayable",
      "type": "function"
    },
    {
      "inputs": [
        {
          "internalType": "address",
          "name": "newOwner",
          "type": "address"
        }
      ],
      "name": "transferOwnership",
      "outputs": [],
      "stateMutability": "nonpayable",
      "type": "function"
    },
    {
      "inputs": [
        {
          "internalType": "string",
          "name": "vestingName",
          "type": "string"
        },
        {
          "internalType": "address",
          "name": "newOwner",
          "type": "address"
        }
      ],
      "name": "updateVestingScheduleOwner",
      "outputs": [],
      "stateMutability": "nonpayable",
      "type": "function"
    },
    {
      "inputs": [
        {
          "internalType": "uint256",
          "name": "",
          "type": "uint256"
        }
      ],
      "name": "vestingNames",
      "outputs": [
        {
          "internalType": "string",
          "name": "",
          "type": "string"
        }
      ],
      "stateMutability": "view",
      "type": "function"
    }
  ],
  "bytecode": "0x6101606040523480156200001257600080fd5b5060405162002ba038038062002ba08339810160408190526200003591620002a5565b6040518060400160405280600e81526020016d2b2a3930b234b733902a37b5b2b760911b81525080604051806040016040528060018152602001603160f81b815250836040518060400160405280600e81526020016d2b2a3930b234b733902a37b5b2b760911b81525060405180604001604052806002815260200161159560f21b8152508160039081620000cb91906200037e565b506004620000da82826200037e565b5050506001600160a01b0381166200010d57604051631e4fbdf760e01b8152600060048201526024015b60405180910390fd5b6200011881620001d7565b506200012682600662000229565b610120526200013781600762000229565b61014052815160208084019190912060e052815190820120610100524660a052620001c560e05161010051604080517f8b73c3c69bb8fe3d512ecc4cf759cc79239f7b179b0ffacaa9a75d522b39400f60208201529081019290925260608201524660808201523060a082015260009060c00160405160208183030381529060405280519060200120905090565b60805250503060c05250620004c09050565b600580546001600160a01b038381166001600160a01b0319831681179093556040519116919082907f8be0079c531659141344cd1fd0a4f28419497f9722a3daafe3b4186f6b6457e090600090a35050565b60006020835110156200024957620002418362000262565b90506200025c565b816200025684826200037e565b5060ff90505b92915050565b600080829050601f8151111562000290578260405163305a27a960e01b81526004016200010491906200044a565b80516200029d826200049b565b179392505050565b600060208284031215620002b857600080fd5b81516001600160a01b0381168114620002d057600080fd5b9392505050565b634e487b7160e01b600052604160045260246000fd5b600181811c908216806200030257607f821691505b6020821081036200032357634e487b7160e01b600052602260045260246000fd5b50919050565b601f82111562000379576000816000526020600020601f850160051c81016020861015620003545750805b601f850160051c820191505b81811015620003755782815560010162000360565b5050505b505050565b81516001600160401b038111156200039a576200039a620002d7565b620003b281620003ab8454620002ed565b8462000329565b602080601f831160018114620003ea5760008415620003d15750858301515b600019600386901b1c1916600185901b17855562000375565b600085815260208120601f198616915b828110156200041b57888601518255948401946001909101908401620003fa565b50858210156200043a5787850151600019600388901b60f8161c191681555b5050505050600190811b01905550565b60006020808352835180602085015260005b818110156200047a578581018301518582016040015282016200045c565b506000604082860101526040601f19601f8301168501019250505092915050565b80516020808301519190811015620003235760001960209190910360031b1b16919050565b60805160a05160c05160e0516101005161012051610140516126856200051b60003960006116970152600061166a0152600061155d0152600061153501526000611490015260006114ba015260006114e401526126856000f3fe608060405234801561001057600080fd5b50600436106101585760003560e01c806379cc6790116100c3578063a89f5eb91161007c578063a89f5eb9146102d0578063a9059cbb146102e3578063d505accf146102f6578063dd62ed3e14610309578063e80118a914610342578063f2fde38b1461036257600080fd5b806379cc6790146102595780637e1c0c091461026c5780637ecebe001461027f57806384b0196e146102925780638da5cb5b146102ad57806395d89b41146102c857600080fd5b8063313ce56711610115578063313ce567146101eb5780633644e515146101fa57806342966c68146102025780635ae553911461021557806370a0823114610228578063715018a61461025157600080fd5b806306fdde031461015d578063095ea7b31461017b57806314274fef1461019e57806318160ddd146101b357806323b872dd146101c55780632db715e9146101d8575b600080fd5b610165610375565b6040516101729190611c01565b60405180910390f35b61018e610189366004611c37565b610407565b6040519015158152602001610172565b6101b16101ac366004611d65565b610421565b005b6002545b604051908152602001610172565b61018e6101d3366004611da2565b6108e3565b6101656101e6366004611dde565b610907565b60405160128152602001610172565b6101b76109b3565b6101b1610210366004611dde565b6109c2565b6101b1610223366004611df7565b6109cf565b6101b7610236366004611e45565b6001600160a01b031660009081526020819052604090205490565b6101b1610ab2565b6101b1610267366004611c37565b610ac6565b6101b76b033b2e3c9fd0803ce800000081565b6101b761028d366004611e45565b610adf565b61029a610afd565b6040516101729796959493929190611e60565b6005546040516001600160a01b039091168152602001610172565b610165610b43565b6101b16102de366004611fd2565b610b52565b61018e6102f1366004611c37565b61106b565b6101b16103043660046120c8565b611079565b6101b761031736600461213b565b6001600160a01b03918216600090815260016020908152604080832093909416825291909152205490565b610355610350366004611d65565b6111b3565b60405161017291906121cd565b6101b1610370366004611e45565b611323565b60606003805461038490612263565b80601f01602080910402602001604051908101604052809291908181526020018280546103b090612263565b80156103fd5780601f106103d2576101008083540402835291602001916103fd565b820191906000526020600020905b8154815290600101906020018083116103e057829003601f168201915b5050505050905090565b60003361041581858561135e565b60019150505b92915050565b6000600982604051610433919061229d565b90815260405190819003602001902080549091506001600160a01b03166104a15760405162461bcd60e51b815260206004820152601f60248201527f56657374696e67207363686564756c6520646f6573206e6f742065786973740060448201526064015b60405180910390fd5b80546001600160a01b0316331461050a5760405162461bcd60e51b815260206004820152602760248201527f4f6e6c792074686520726563697069656e742063616e20636c61696d2074686560448201526620746f6b656e7360c81b6064820152608401610498565b600081600101541161052e5760405162461bcd60e51b8152600401610498906122b9565b80600101548160020154106105855760405162461bcd60e51b815260206004820152601d60248201527f416c6c20746f6b656e732068617665206265656e2072656c65617365640000006044820152606401610498565b80600601548160070154106105dc5760405162461bcd60e51b815260206004820152601c60248201527f416c6c20746f6b656e732068617665206265656e20636c61696d6564000000006044820152606401610498565b600481015460009060ff16610637576003820154156106375760038201546106049082612306565b60048301805460ff1916600117905560038301546002840180549293509091600090610631908490612306565b90915550505b60068201546001830154600284015460078501544293929190805b8481101561080357600088600501828154811061067157610671612327565b60009182526020918290206040805160a081018252600590930290910180548352600181015493830193909352600283015490820152600382015460ff1615801560608301526004909201546080820152915061071e5760405162461bcd60e51b815260206004820152602560248201527f52656c6561736520696e666f2068617320616c7265616479206265656e20636c604482015264185a5b595960da1b6064820152608401610498565b806040015187106107f45780516107359089612306565b9750600189600501838154811061074e5761074e612327565b906000526020600020906005020160030160006101000a81548160ff0219169083151502179055508689600501838154811061078c5761078c612327565b9060005260206000209060050201600401819055508060200151896007018190555086896008018190555080600001518960020160008282546107cf9190612306565b909155505080516107e09085612306565b93508484106107ef5750610803565b6107fa565b50610803565b50600101610652565b50851561089e576b033b2e3c9fd0803ce80000008661082160025490565b61082b9190612306565b11156108895760405162461bcd60e51b815260206004820152602760248201527f45524332303a206d696e7420616d6f756e74206578636565647320746f74616c60448201526620737570706c7960c81b6064820152608401610498565b865461089e906001600160a01b031687611370565b7ffaa00cec9d715455a4f363057bafd4defc08d7037056b09fda553fe3626304b08833886040516108d19392919061233d565b60405180910390a15050505050505050565b6000336108f18582856113a6565b6108fc858585611424565b506001949350505050565b600a818154811061091757600080fd5b90600052602060002001600091509050805461093290612263565b80601f016020809104026020016040519081016040528092919081815260200182805461095e90612263565b80156109ab5780601f10610980576101008083540402835291602001916109ab565b820191906000526020600020905b81548152906001019060200180831161098e57829003601f168201915b505050505081565b60006109bd611483565b905090565b6109cc33826115ae565b50565b6109d76115e4565b60006009836040516109e9919061229d565b90815260405190819003602001902080549091506001600160a01b0316610a525760405162461bcd60e51b815260206004820152601f60248201527f56657374696e67207363686564756c6520646f6573206e6f74206578697374006044820152606401610498565b80546001600160a01b038381166001600160a01b031983161783556040519116907fa1a0153acf55bf2cbc6bca85115d7e35764008abc8b7dd165422369391f6a69e90610aa49086908490879061236b565b60405180910390a150505050565b610aba6115e4565b610ac46000611611565b565b610ad18233836113a6565b610adb82826115ae565b5050565b6001600160a01b03811660009081526008602052604081205461041b565b600060608060008060006060610b11611663565b610b19611690565b60408051600080825260208201909252600f60f81b9b939a50919850469750309650945092509050565b60606004805461038490612263565b610b5a6115e4565b80516001600160a01b0316610bb15760405162461bcd60e51b815260206004820152601d60248201527f526563697069656e7420616464726573732063616e6e6f7420626520300000006044820152606401610498565b6000816020015111610bd55760405162461bcd60e51b8152600401610498906122b9565b8060c001518160a001515114610c535760405162461bcd60e51b815260206004820152603960248201527f52656c6561736520696e666f206c656e677468206d757374206265206571756160448201527f6c20746f20746f74616c2072656c65617365206d6f6e746873000000000000006064820152608401610498565b60006001600160a01b0316600983604051610c6e919061229d565b908152604051908190036020019020546001600160a01b031614610cd45760405162461bcd60e51b815260206004820152601f60248201527f56657374696e67207363686564756c6520616c726561647920657869737473006044820152606401610498565b606081015160005b8260a0015151811015610d20578260a001518181518110610cff57610cff612327565b60200260200101516000015182610d169190612306565b9150600101610cdc565b5081602001518114610d8c5760405162461bcd60e51b815260206004820152602f60248201527f546f74616c2072656c6561736520616d6f756e74206d757374206d617463682060448201526e1d1bdd185b08185b1b1bd8d85d1959608a1b6064820152608401610498565b602082015160005b600a54811015610df1576009600a8281548110610db357610db3612327565b90600052602060002001604051610dca919061239e565b90815260200160405180910390206001015482610de79190612306565b9150600101610d94565b50806b033b2e3c9fd0803ce80000001015610e745760405162461bcd60e51b815260206004820152603860248201527f546f74616c20746f6b656e73206d75737420626520677265617465722074686160448201527f6e20746f74616c20616c6c6f636174656420746f6b656e7300000000000000006064820152608401610498565b6000600985604051610e86919061229d565b90815260405160209181900382019020855181546001600160a01b0319166001600160a01b039091161781559085015160018201556060850151600382015560c08501516006820155600060028201819055600782018190556008820181905560048201805460ff191690559091505b8460a0015151811015610fed57816005016040518060a001604052808760a001518481518110610f2857610f28612327565b60200260200101516000015181526020018760a001518481518110610f4f57610f4f612327565b60200260200101516020015181526020018760a001518481518110610f7657610f76612327565b6020908102919091018101516040908101518352600083830181905292810183905284546001808201875595845292829020845160059094020192835590830151828501558201516002820155606082015160038201805460ff191691151591909117905560809091015160049091015501610ef6565b50600a80546001810182556000919091527fc65a7bb8d6351c1cf70c95a316cc6a92839c986682d98bc35f958f4883f9d2a80161102a8682612464565b507f887fb2f070b5f8c0d3c851c2e5ddae705d690617ab513ffe707c44599fb37ec5858260405161105c929190612589565b60405180910390a15050505050565b600033610415818585611424565b8342111561109d5760405163313c898160e11b815260048101859052602401610498565b60007f6e71edae12b1b97f4d1f60370fef10105fa2faae0126114a169c64845d6126c98888886110ea8c6001600160a01b0316600090815260086020526040902080546001810190915590565b6040805160208101969096526001600160a01b0394851690860152929091166060840152608083015260a082015260c0810186905260e0016040516020818303038152906040528051906020012090506000611145826116bd565b90506000611155828787876116ea565b9050896001600160a01b0316816001600160a01b03161461119c576040516325c0072360e11b81526001600160a01b0380831660048301528b166024820152604401610498565b6111a78a8a8a61135e565b50505050505050505050565b61120d60405180610120016040528060006001600160a01b03168152602001600081526020016000815260200160008152602001600015158152602001606081526020016000815260200160008152602001600081525090565b60098260405161121d919061229d565b9081526040805191829003602090810183206101208401835280546001600160a01b0316845260018101548483015260028101548484015260038101546060850152600481015460ff1615156080850152600581018054845181850281018501909552808552919360a086019390929060009084015b828210156112f65760008481526020908190206040805160a081018252600586029092018054835260018082015484860152600282015492840192909252600381015460ff16151560608401526004015460808301529083529092019101611293565b50505050815260200160068201548152602001600782015481526020016008820154815250509050919050565b61132b6115e4565b6001600160a01b03811661135557604051631e4fbdf760e01b815260006004820152602401610498565b6109cc81611611565b61136b8383836001611718565b505050565b6001600160a01b03821661139a5760405163ec442f0560e01b815260006004820152602401610498565b610adb600083836117ed565b6001600160a01b03838116600090815260016020908152604080832093861683529290522054600019811461141e578181101561140f57604051637dc7a0d960e11b81526001600160a01b03841660048201526024810182905260448101839052606401610498565b61141e84848484036000611718565b50505050565b6001600160a01b03831661144e57604051634b637e8f60e11b815260006004820152602401610498565b6001600160a01b0382166114785760405163ec442f0560e01b815260006004820152602401610498565b61136b8383836117ed565b6000306001600160a01b037f0000000000000000000000000000000000000000000000000000000000000000161480156114dc57507f000000000000000000000000000000000000000000000000000000000000000046145b1561150657507f000000000000000000000000000000000000000000000000000000000000000090565b6109bd604080517f8b73c3c69bb8fe3d512ecc4cf759cc79239f7b179b0ffacaa9a75d522b39400f60208201527f0000000000000000000000000000000000000000000000000000000000000000918101919091527f000000000000000000000000000000000000000000000000000000000000000060608201524660808201523060a082015260009060c00160405160208183030381529060405280519060200120905090565b6001600160a01b0382166115d857604051634b637e8f60e11b815260006004820152602401610498565b610adb826000836117ed565b6005546001600160a01b03163314610ac45760405163118cdaa760e01b8152336004820152602401610498565b600580546001600160a01b038381166001600160a01b0319831681179093556040519116919082907f8be0079c531659141344cd1fd0a4f28419497f9722a3daafe3b4186f6b6457e090600090a35050565b60606109bd7f00000000000000000000000000000000000000000000000000000000000000006006611917565b60606109bd7f00000000000000000000000000000000000000000000000000000000000000006007611917565b600061041b6116ca611483565b8360405161190160f01b8152600281019290925260228201526042902090565b6000806000806116fc888888886119c2565b92509250925061170c8282611a91565b50909695505050505050565b6001600160a01b0384166117425760405163e602df0560e01b815260006004820152602401610498565b6001600160a01b03831661176c57604051634a1406b160e11b815260006004820152602401610498565b6001600160a01b038085166000908152600160209081526040808320938716835292905220829055801561141e57826001600160a01b0316846001600160a01b03167f8c5be1e5ebec7d5bd14f71427d1e84f3dd0314c0f7b2291e5b200ac8c7c3b925846040516117df91815260200190565b60405180910390a350505050565b6001600160a01b03831661181857806002600082825461180d9190612306565b9091555061188a9050565b6001600160a01b0383166000908152602081905260409020548181101561186b5760405163391434e360e21b81526001600160a01b03851660048201526024810182905260448101839052606401610498565b6001600160a01b03841660009081526020819052604090209082900390555b6001600160a01b0382166118a6576002805482900390556118c5565b6001600160a01b03821660009081526020819052604090208054820190555b816001600160a01b0316836001600160a01b03167fddf252ad1be2c89b69c2b068fc378daa952ba7f163c4a11628f55a4df523b3ef8360405161190a91815260200190565b60405180910390a3505050565b606060ff83146119315761192a83611b4a565b905061041b565b81805461193d90612263565b80601f016020809104026020016040519081016040528092919081815260200182805461196990612263565b80156119b65780601f1061198b576101008083540402835291602001916119b6565b820191906000526020600020905b81548152906001019060200180831161199957829003601f168201915b5050505050905061041b565b600080807f7fffffffffffffffffffffffffffffff5d576e7357a4501ddfe92f46681b20a08411156119fd5750600091506003905082611a87565b604080516000808252602082018084528a905260ff891692820192909252606081018790526080810186905260019060a0016020604051602081039080840390855afa158015611a51573d6000803e3d6000fd5b5050604051601f1901519150506001600160a01b038116611a7d57506000925060019150829050611a87565b9250600091508190505b9450945094915050565b6000826003811115611aa557611aa5612639565b03611aae575050565b6001826003811115611ac257611ac2612639565b03611ae05760405163f645eedf60e01b815260040160405180910390fd5b6002826003811115611af457611af4612639565b03611b155760405163fce698f760e01b815260048101829052602401610498565b6003826003811115611b2957611b29612639565b03610adb576040516335e2f38360e21b815260048101829052602401610498565b60606000611b5783611b89565b604080516020808252818301909252919250600091906020820181803683375050509182525060208101929092525090565b600060ff8216601f81111561041b57604051632cd44ac360e21b815260040160405180910390fd5b60005b83811015611bcc578181015183820152602001611bb4565b50506000910152565b60008151808452611bed816020860160208601611bb1565b601f01601f19169290920160200192915050565b602081526000611c146020830184611bd5565b9392505050565b80356001600160a01b0381168114611c3257600080fd5b919050565b60008060408385031215611c4a57600080fd5b611c5383611c1b565b946020939093013593505050565b634e487b7160e01b600052604160045260246000fd5b60405160a0810167ffffffffffffffff81118282101715611c9a57611c9a611c61565b60405290565b604051610120810167ffffffffffffffff81118282101715611c9a57611c9a611c61565b604051601f8201601f1916810167ffffffffffffffff81118282101715611ced57611ced611c61565b604052919050565b600082601f830112611d0657600080fd5b813567ffffffffffffffff811115611d2057611d20611c61565b611d33601f8201601f1916602001611cc4565b818152846020838601011115611d4857600080fd5b816020850160208301376000918101602001919091529392505050565b600060208284031215611d7757600080fd5b813567ffffffffffffffff811115611d8e57600080fd5b611d9a84828501611cf5565b949350505050565b600080600060608486031215611db757600080fd5b611dc084611c1b565b9250611dce60208501611c1b565b9150604084013590509250925092565b600060208284031215611df057600080fd5b5035919050565b60008060408385031215611e0a57600080fd5b823567ffffffffffffffff811115611e2157600080fd5b611e2d85828601611cf5565b925050611e3c60208401611c1b565b90509250929050565b600060208284031215611e5757600080fd5b611c1482611c1b565b60ff60f81b881681526000602060e06020840152611e8160e084018a611bd5565b8381036040850152611e93818a611bd5565b606085018990526001600160a01b038816608086015260a0850187905284810360c08601528551808252602080880193509091019060005b81811015611ee757835183529284019291840191600101611ecb565b50909c9b505050505050505050505050565b80358015158114611c3257600080fd5b600082601f830112611f1a57600080fd5b8135602067ffffffffffffffff821115611f3657611f36611c61565b611f44818360051b01611cc4565b82815260a09283028501820192828201919087851115611f6357600080fd5b8387015b85811015611fc55781818a031215611f7f5760008081fd5b611f87611c77565b813581528582013586820152604080830135908201526060611faa818401611ef9565b90820152608082810135908201528452928401928101611f67565b5090979650505050505050565b60008060408385031215611fe557600080fd5b823567ffffffffffffffff80821115611ffd57600080fd5b61200986838701611cf5565b9350602085013591508082111561201f57600080fd5b90840190610120828703121561203457600080fd5b61203c611ca0565b61204583611c1b565b815260208301356020820152604083013560408201526060830135606082015261207160808401611ef9565b608082015260a08301358281111561208857600080fd5b61209488828601611f09565b60a08301525060c083013560c082015260e083013560e0820152610100915081830135828201528093505050509250929050565b600080600080600080600060e0888a0312156120e357600080fd5b6120ec88611c1b565b96506120fa60208901611c1b565b95506040880135945060608801359350608088013560ff8116811461211e57600080fd5b9699959850939692959460a0840135945060c09093013592915050565b6000806040838503121561214e57600080fd5b61215783611c1b565b9150611e3c60208401611c1b565b60008151808452602080850194506020840160005b838110156121c2578151805188528381015184890152604080820151908901526060808201511515908901526080908101519088015260a0909601959082019060010161217a565b509495945050505050565b602081526121e76020820183516001600160a01b03169052565b6020820151604082015260408201516060820152606082015160808201526000608083015161221a60a084018215159052565b5060a08301516101208060c0850152612237610140850183612165565b60c086015160e08681019190915286015161010080870191909152909501519301929092525090919050565b600181811c9082168061227757607f821691505b60208210810361229757634e487b7160e01b600052602260045260246000fd5b50919050565b600082516122af818460208701611bb1565b9190910192915050565b6020808252602d908201527f546f74616c20616c6c6f636174656420746f6b656e73206d757374206265206760408201526c0726561746572207468616e203609c1b606082015260800190565b8082018082111561041b57634e487b7160e01b600052601160045260246000fd5b634e487b7160e01b600052603260045260246000fd5b6060815260006123506060830186611bd5565b6001600160a01b039490941660208301525060400152919050565b60608152600061237e6060830186611bd5565b6001600160a01b0394851660208401529290931660409091015292915050565b60008083546123ac81612263565b600182811680156123c457600181146123d957612408565b60ff1984168752821515830287019450612408565b8760005260208060002060005b858110156123ff5781548a8201529084019082016123e6565b50505082870194505b50929695505050505050565b601f82111561136b576000816000526020600020601f850160051c8101602086101561243d5750805b601f850160051c820191505b8181101561245c57828155600101612449565b505050505050565b815167ffffffffffffffff81111561247e5761247e611c61565b6124928161248c8454612263565b84612414565b602080601f8311600181146124c757600084156124af5750858301515b600019600386901b1c1916600185901b17855561245c565b600085815260208120601f198616915b828110156124f6578886015182559484019460019091019084016124d7565b50858210156125145787850151600019600388901b60f8161c191681555b5050505050600190811b01905550565b600081548084526020808501945083600052602060002060005b838110156121c257815487526001808301548489015260028301546040890152600383015460ff16151560608901526004830154608089015260a0909701966005909201910161253e565b60408152600061259c6040830185611bd5565b82810360208401526101206125c9826125bc87546001600160a01b031690565b6001600160a01b03169052565b600185015460208301526002850154604083015260038501546060830152600485015460ff161515608083015260a0820181905261260c81830160058701612524565b9050600685015460c0830152600785015460e0830152600885015461010083015280925050509392505050565b634e487b7160e01b600052602160045260246000fdfea2646970667358221220cb7d4ac0307cb32ae417cdfb7afb9b8aaca784abbf4fda256c9f22069d142fdd64736f6c63430008180033",
  "linkReferences": {},
  "deployedLinkReferences": {}
}